:020000040800F2
:100000000812002035580008D1570008D3570008BF
:10001000D5570008D7570008D9570008000000003E
:10002000000000000000000000000000FF48000881
:10003000DB57000800000000B9480008333F000803
:10004000895800088D5800089158000895580008F4
:10005000995800089D580008A1580008A5580008A4
:10006000A9580008AD580008B1580008B558000854
:10007000B9580008BD580008C1580008C558000804
:10008000C9580008CD580008D1580008D5580008B4
:10009000D9580008DD580008E1580008E558000864
:1000A000E9580008DD570008ED580008F15800082D
:1000B000F5580008F9580008FD58000801590008D3
:1000C00005590008095900080D5900081159000880
:1000D00015590008195900081D5900082159000830
:1000E00025590008295900082D59000831590008E0
:1000F00035590008395900083D5900084159000890
:1001000045590008495900084D590008515900083F
:1001100055590008595900085D59000861590008EF
:1001200065590008695900086D590008715900089F
:1001300080B5DFF8B01391F9000000280AD15FF014
:10014000FF30087000F007F800F00FF800F068F9D1
:1001500000F002F801BD7047704710B5040001209F
:10016000B4FBF0F002F0D8F910BD70472DE9F84F5C
:1001700006000F005FF00009C846DFF86CA3DAF84C
:100180000040002C0DD06068B04201D118F1010888
:10019000606800883188884201D119F1010924681A
:1001A000EFE7706802F050FC0500002D01D100203F
:1001B0002EE0706800900024AB462200009958465B
:1001C00002F07CFD6E60B06800280CD04B464246C1
:1001D00039002800B468A047002804D1280002F0A4
:1001E000C3FC002014E0DAF80000002804D0DFF897
:1001F000FC020068056001E0CAF80050DFF8EC027C
:100200000560F068002802D02800F16888472800BF
:10021000BDE8F28F30B403000024DFF8CC0202689E
:10022000002A0CD0506800881D00ADB2A84204D14D
:100230008C4201D1100003E0641C1268F0E700203A
:1002400030BC70470200002901D0086802E0DFF8E6
:1002500098020068002807D04168098813009BB203
:10026000994201D00068F5E7704710B504000120FD
:10027000E085E08DA085200002F0D8FF200002F08C
:10028000E2FF200002F0EEFF10BD10B50400B4F94B
:100290002800B4F92010884211DBB4F92800B4F921
:1002A000241088420BDAB4F92A00B4F922108842EB
:1002B00005DBB4F92A00B4F92610884200DB02E01D
:1002C0002000FFF7D2FF10BD38B50500B5F92C406E
:1002D000B5F92E004443280002F0A8FF002C04D0FA
:1002E000280002F0B0FF641EF8E7280002F0BAFF11
:1002F00031BD10B50400B4F93000B4F928108842BB
:1003000005DA208DA085208E2085A08D2086B4F969
:100310002A00B4F92210884205DBB4F92A00B4F9A6
:100320002610884200DB2DE0B4F92800B4F9201033
:10033000884201DA208C2085B4F93000B4F9241009
:10034000884202DBA08C401E2086B4F93000B4F94C
:100350002810884216DB218E208D091A491CA185A0
:100360000120E085200002F061FF200002F06BFF19
:10037000A08D401EA085B4F92C000028F5D12000E6
:1003800002F070FF10BD2DE9FE430400B4F908002F
:10039000402190FBF1F5280000B2002801D1012096
:1003A0000500B4F90800290009B2B0EB41100221A0
:1003B00090FBF1F6B4F90A00290009B2B0EB011084
:1003C000022190FBF1F7DFF82881C14618F1800087
:1003D000814523D24FF6FF700190B9F806006843BB
:1003E00000B20090B9F804306B431BB23A0012B26D
:1003F000B9F90210280000B200FB012212B231004C
:1004000009B2B9F900C0280000B200FB0C1109B212
:10041000200000F09AF819F10809D7E7BDE8F78342
:1004200010B534488178C90702D40021FFF79EFE39
:100430004FF47A70FFF791FE00216720FFF702FF6B
:100440000400002C09D00021200000F05FF82100FA
:100450006720FFF7F7FE0400F3E75FF0FF3026495F
:10046000087010BDF8B504000D0016001F002777B6
:1004700066770020E0836561200002F012FD40B243
:10048000F2BD1CB5040040F2E9320121200001F068
:1004900007FFB4F90A000090B4F9083000220021E7
:1004A000200000F0A5F80021200000F02FF81248ED
:1004B00090F90000002802D12000FFF764FF0F49E7
:1004C0000868002800D10C6013BD38B504000B4D3E
:1004D0002868A04204D100216720FFF79BFE286016
:1004E00031BD0000040E00209C0D0020A00D002056
:1004F000D855000858560008050E0020A40D00200D
:10050000B0F908007047B0F90A00704770B50500EF
:100510000E0000206885688D28852889A88568894F
:10052000E8852E87B5F92C40B5F92E004443280004
:1005300002F07CFE002C04D0280002F084FE641E31
:10054000F8E7280002F08EFE70BD2DE9F8430500A3
:100550000E0017009846BDF92090099C2E856F85E6
:10056000A5F82C80A5F82E902C87B5F92800B5F9B0
:100570002010884207DAA98D288C091A288D411885
:10058000A985288C2885B5F92A00B5F9221088425A
:1005900007DAE98D688C091A688D4118E985688C3D
:1005A0006885B5F92410B5F92820B5F92C00821812
:1005B000914203DAA98C288D091AA985B5F926106C
:1005C000B5F92A20B5F92E008218914203DAE98C98
:1005D000688D091AE985B5F92C00012806DBB5F903
:1005E0002E00012802DB2800FFF76EFEBDE8F18334
:1005F00070B4BDF90C400D002DB2002D02D5CB1802
:100600000025290015002DB2002D02D51419002552
:100610002A001D002DB2012D0FDB25002DB2012D6A
:100620000BDB0D00B0F908602DB2B54205DA1500FC
:10063000B0F90A602DB2B54204DB00252C002B0076
:100640002A002900018442845D188584B0F908508D
:10065000B0F92460B54201DA05898584A518C584FE
:10066000B0F90A50B0F92660B54201DA4589C5846F
:1006700070BC70472DE9FF4F85B00400BDF91850DC
:100680002D0415F500452E00DFF82881DFF82891AC
:10069000BDF9200002F09CFE82468B46BDF9480061
:1006A00002F096FE42464B4602F0A4FE0022434B67
:1006B00002F072FF03F0A0FA52465B4602F09AFE87
:1006C00000223F4B02F096FE03F09AFA0490BDF927
:1006D000480002F07DFE42464B4602F08BFE0022AF
:1006E000364B02F059FF03F089FA82468B46BDF97A
:1006F000200002F06DFE52465B4602F07BFE0200D7
:100700000B0000202F4903F099FA03F009FB03F0D6
:1007100077FAADF80200BDF9200002F059FE8246DA
:100720008B46BDF94C0002F053FE42464B4602F0A8
:1007300061FE0022214B02F02FFF03F05DFA5246CA
:100740005B4602F057FE00221D4B02F053FE03F001
:1007500057FA0700BDF94C0002F03AFE42464B46FC
:1007600002F048FE0022154B02F016FF03F046FA95
:1007700080468946BDF9200002F02AFE42464B46DB
:1007800002F038FE02000B0000200E4903F056FA7A
:1007900003F0C6FA03F034FAADF80400BDF9020024
:1007A000002811D00498BDF9021090FBF1F00390DD
:1007B0000CE000BF182D4454FB2109400080664026
:1007C0000000F0400000E03F04980390BDF90400F1
:1007D000002805D0BDF9040097FBF0F0029000E07E
:1007E000029700208DF800000498012805DB9DF891
:1007F000000050F001008DF80000BDF90200012852
:1008000005DB9DF8000050F002008DF80000012F7C
:1008100005DB9DF8000050F004008DF80000BDF9E4
:100820000400012805DB9DF8000050F008008DF859
:100830000000BDF90400BDF90210884208DBBDF9D3
:100840000200BDF90410884208D10498012805DB94
:100850009DF8000050F010008DF800005FF00108D6
:10086000BDF92090BDF820A0DAF1040ABDF85000CF
:100870002087DDF810B016EB0B0BEF199DF8000088
:1008800000284ED0022800F089814AD3042800F0C5
:10089000D382C0F08381062800F08081C0F0CC8232
:1008A000082800F04184C0F079810A2800F08A8588
:1008B000C0F03A840C2800F03784C0F085860E28FA
:1008C00000F08085C0F03084102800F0EE87C0F082
:1008D0007B86122800F06281C1F06181142800F04B
:1008E000E487C0F05B81162800F05881C1F0578181
:1008F000182800F01984C0F051811A2801F068828C
:10090000C0F012841C2800F00F84C1F061821E2800
:1009100001F0CF83C0F008841F2801F0CA8301F0E2
:10092000BCBCBDF9040000280ED0BDF902000028AF
:100930000AD0BDF818002085BDF81800208603985D
:10094000361A02982D1A27E0BDF9020000280AD0B5
:10095000BDF81800B0EB09002085BDF8180020860E
:100960000398361A18E0BDF9040000280AD0BDF833
:1009700018002085BDF8180019EB000020860298A9
:100980002D1A09E0BDF81800B0EB09002085BDF86C
:10099000180019EB00002086BDF81C0060852000BF
:1009A000FFF7A7FC404600B24042BDF90410884260
:1009B00012DBBDF81C00B0EB0800608528000014B5
:1009C00020853000001420862000FFF792FC039859
:1009D000361A02982D1A2FE0404600B24042BDF967
:1009E0000210884212DBBDF81C00B0EB08006085E5
:1009F000BDF81800B0EB09002085300000142086F7
:100A00002000FFF776FC0398361A15E09DF80000E9
:100A1000C00711D5BDF81C00B0EB08006085BDF81B
:100A20001800B0EB09002085BDF8180019EB000094
:100A300020862000FFF75DFC504600B2002809D553
:100A40000FFA88F85FEA4800C01C10EB0A0A18F198
:100A5000010856E0484600B24042BDF90410884201
:100A600013DBBDF81C00B0EB0900608538000014F2
:100A700020855846001420862000FFF73AFC039892
:100A800010EB0B0B0298C71930E0484600B2404209
:100A9000BDF90210884213DBBDF81C00B0EB090061
:100AA0006085BDF81800B0EB08002085584600149A
:100AB00020862000FFF71DFC039810EB0B0B15E0C0
:100AC0009DF80000C00711D5BDF81C00B0EB09006F
:100AD0006085BDF81800B0EB08002085BDF818004F
:100AE00018EB000020862000FFF703FCB8EB09009C
:100AF00000B24000401D10EB0A0AB9F1010918F1DB
:100B000001084046494600B209B28842FFF64AAFA2
:100B1000404600B24042BDF9041088420EDBBDF8E9
:100B20001C00B0EB08006085280000142085300010
:100B3000001420862000FFF7DCFB2DE0404600B2C9
:100B40004042BDF90210884210DBBDF81C00B0EB3A
:100B500008006085BDF81800B0EB09002085300062
:100B6000001420862000FFF7C4FB15E09DF800006C
:100B7000C00711D5BDF81C00B0EB08006085BDF8BA
:100B80001800B0EB09002085BDF8180019EB000033
:100B900020862000FFF7ADFB01F07FBBBDF81C00F5
:100BA0006085BDF818002085BDF8180019EB00001D
:100BB00020862000FFF79DFB0398861902982D1AC6
:100BC000404600B24042BDF90410884212DBBDF835
:100BD0001C00B0EB08006085280000142085BDF8DB
:100BE000180019EB000020862000FFF782FB029816
:100BF0002D1A15E09DF80000400711D4BDF81C0027
:100C0000B0EB08006085BDF81800B0EB0900208546
:100C1000BDF8180019EB000020862000FFF769FBE3
:100C2000BDF90200414609B2884212DBBDF81C0042
:100C300018EB00006085300000142085BDF8180016
:100C400019EB000020862000FFF753FB039886195C
:100C500015E09DF80000C00711D4BDF81C0018EB8A
:100C600000006085BDF81800B0EB09002085BDF8D4
:100C7000180019EB000020862000FFF73AFB5046D1
:100C800000B2002809D50FFA88F85FEA4800C01CB6
:100C900010EB0A0A18F101086AE0484600B2404227
:100CA000BDF90410884212DBBDF81C00B0EB09004E
:100CB0006085380000142085BDF8180018EB00008E
:100CC00020862000FFF715FB0298C71915E09DF854
:100CD0000000400711D4BDF81C00B0EB090060858E
:100CE000BDF81800B0EB08002085BDF8180018EB1F
:100CF000000020862000FFF7FCFABDF902004946FB
:100D000009B2884213DBBDF81C0019EB00006085B6
:100D1000584600142085BDF8180018EB0000208606
:100D20002000FFF7E6FA0398BBEB000B15E09DF8F7
:100D30000000C00711D4BDF81C0019EB000060854D
:100D4000BDF81800B0EB08002085BDF8180018EBBE
:100D5000000020862000FFF7CCFAB8EB090000B2B3
:100D60004000401D10EB0A0AB9F1010918F1010811
:100D70004046494600B209B28842FFF621AF4046DC
:100D800000B24042BDF90410884210DBBDF81C00DF
:100D9000B0EB08006085280000142085BDF818001D
:100DA00019EB000020862000FFF7A3FA15E09DF85C
:100DB0000000400711D4BDF81C00B0EB08006085AE
:100DC000BDF81800B0EB09002085BDF8180019EB3C
:100DD000000020862000FFF78CFABDF90200414692
:100DE00009B2884210DBBDF81C0018EB00006085DA
:100DF000300000142085BDF8180018EB0000208694
:100E00002000FFF776FA15E09DF80000C00711D426
:100E1000BDF81C0018EB00006085BDF81800B0EBB1
:100E200009002085BDF8180018EB0000208620007E
:100E3000FFF75FFA01F031BABDF81C006085BDF81C
:100E40001800B0EB09002085BDF8180019EB000070
:100E500020862000FFF74DFA404600B24042BDF91F
:100E60000410884224DBBDF81C00B0EB080060854C
:100E7000BDF81800B0EB0900208530000014208672
:100E80002000FFF736FABDF81C00B0EB08006085C3
:100E9000280000142085BDF8180019EB00002086FA
:100EA0002000FFF726FA0398361A02982D1A2FE031
:100EB000404600B24042BDF90210884212DBBDF844
:100EC0001C00B0EB08006085BDF81800B0EB09000D
:100ED00020853000001420862000FFF70AFA0398CE
:100EE000361A15E09DF80000C00711D5BDF81C00AA
:100EF000B0EB08006085BDF81800B0EB0900208554
:100F0000BDF8180019EB000020862000FFF7F1F96A
:100F1000BDF81C0018EB00006085BDF81800B0EBB0
:100F200009002085BDF8180019EB0000208620007C
:100F3000FFF7DFF9504600B2002809D50FFA88F80C
:100F40005FEA4800C01C10EB0A0A18F101087AE0B9
:100F5000484600B24042BDF90410884225DBBDF886
:100F60001C00B0EB09006085BDF81800B0EB08006C
:100F700020855846001420862000FFF7BAF9BDF8F6
:100F80001C00B0EB09006085380000142085BDF816
:100F9000180018EB000020862000FFF7AAF903983C
:100FA00010EB0B0B0298C71930E0484600B24042E4
:100FB000BDF90210884213DBBDF81C00B0EB09003C
:100FC0006085BDF81800B0EB080020855846001475
:100FD00020862000FFF78DF9039810EB0B0B15E02E
:100FE0009DF80000C00711D5BDF81C00B0EB09004A
:100FF0006085BDF81800B0EB08002085BDF818002A
:1010000018EB000020862000FFF773F9BDF81C00E4
:1010100019EB00006085BDF81800B0EB08002085D2
:10102000BDF8180018EB000020862000FFF761F9DA
:10103000B8EB090000B24000401D10EB0A0AB9F1FC
:10104000010918F101084046494600B209B2884238
:10105000FFF602AF404600B24042BDF9041088429C
:1010600020DBBDF81C00B0EB08006085BDF818005F
:10107000B0EB090020853000001420862000FFF727
:1010800038F9BDF81C00B0EB08006085280000149A
:101090002085BDF8180019EB000020862000FFF71E
:1010A00028F92DE0404600B24042BDF902108842C6
:1010B00010DBBDF81C00B0EB08006085BDF818001F
:1010C000B0EB090020853000001420862000FFF7D7
:1010D00010F915E09DF80000C00711D5BDF81C00FF
:1010E000B0EB08006085BDF81800B0EB0900208562
:1010F000BDF8180019EB000020862000FFF7F9F872
:10110000BDF81C0019EB00006085BDF81800B0EBBD
:1011100008002085BDF8180018EB0000208620008C
:10112000FFF7E7F801F0B9B8BDF81C006085BDF81D
:101130001800B0EB09002085BDF8180020862000BB
:10114000FFF7D7F80398361A02984519404600B2BF
:101150004042BDF90210884212DBBDF81C00B0EB22
:1011600008006085BDF81800B0EB0900208530004C
:10117000001420862000FFF7BCF80398361A15E00B
:101180009DF80000C00711D5BDF81C00B0EB0800A9
:101190006085BDF81800B0EB09002085BDF8180087
:1011A00019EB000020862000FFF7A3F8BDF904002A
:1011B000414609B2884212DBBDF81C0018EB000062
:1011C0006085BDF81800B0EB0900208528000014E8
:1011D00020862000FFF78DF80298451915E09DF84C
:1011E0000000400711D5BDF81C0018EB0000608519
:1011F000BDF81800B0EB09002085BDF8180019EB08
:10120000000020862000FFF774F8504600B2002846
:1012100009D50FFA88F85FEA4800C01C10EB0A0AEB
:1012200018F101086AE0484600B24042BDF90210D8
:10123000884213DBBDF81C00B0EB09006085BDF8E7
:101240001800B0EB080020855846001420862000C6
:10125000FFF74FF8039810EB0B0B15E09DF800001B
:10126000C00711D5BDF81C00B0EB09006085BDF8C2
:101270001800B0EB08002085BDF8180018EB00003E
:1012800020862000FFF735F8BDF90400494609B271
:10129000884212DBBDF81C0019EB00006085BDF828
:1012A0001800B0EB080020853800001420862000CC
:1012B000FFF71FF802983F1A15E09DF8000040075D
:1012C00011D5BDF81C0019EB00006085BDF81800B1
:1012D000B0EB08002085BDF8180018EB0000208650
:1012E0002000FFF706F8B8EB090000B24000401DEF
:1012F00010EB0A0AB9F1010918F101084046494604
:1013000000B209B28842FFF621AF404600B2404227
:10131000BDF90210884210DBBDF81C00B0EB0800DC
:101320006085BDF81800B0EB09002085300000147E
:1013300020862000FEF7DDFF15E09DF80000C007C5
:1013400011D5BDF81C00B0EB08006085BDF8180091
:10135000B0EB09002085BDF8180019EB00002086CD
:101360002000FEF7C6FFBDF90400414609B28842DD
:1013700010DBBDF81C0018EB00006085BDF81800FC
:10138000B0EB090020852800001420862000FEF71D
:10139000B0FF15E09DF80000400711D5BDF81C0016
:1013A00018EB00006085BDF81800B0EB090020853F
:1013B000BDF8180018EB000020862000FEF799FF0A
:1013C00000F06BBFBDF81C006085BDF818002085DB
:1013D0002000FEF75AFF0398861902984519BDF9B7
:1013E0000200414609B2884212DBBDF81C0018EB2E
:1013F000000060853000001420852800001420863D
:101400002000FEF776FF03988619029845192EE012
:10141000BDF90400414609B2884212DBBDF81C0048
:1014200018EB00006085BDF81800B0EB09002085BE
:101430002800001420862000FEF75BFF0298451963
:1014400015E09DF80000400711D5BDF81C0018EB11
:1014500000006085BDF81800B0EB09002085BDF8DC
:10146000180019EB000020862000FEF742FF5046CE
:1014700000B2002809D50FFA88F85FEA4800C01CBE
:1014800010EB0A0A18F1010853E0BDF902004946C1
:1014900009B2884213DBBDF81C0019EB000060851F
:1014A0005846001420853800001420862000FEF7DE
:1014B00020FF0398BBEB000B02983F1A2EE0BDF90A
:1014C0000400494609B2884212DBBDF81C0019EB42
:1014D00000006085BDF81800B0EB080020853800DA
:1014E000001420862000FEF704FF02983F1A15E042
:1014F0009DF80000400711D5BDF81C0019EB000055
:101500006085BDF81800B0EB08002085BDF8180014
:1015100018EB000020862000FEF7EBFEB8EB090078
:1015200000B24000401D10EB0A0AB9F1010918F1A0
:1015300001084046494600B209B28842FFF64FAF63
:10154000BDF90200414609B288420EDBBDF81C001D
:1015500018EB00006085300000142085280000147E
:1015600020862000FEF7C5FE2CE0BDF904004146B0
:1015700009B2884210DBBDF81C0018EB0000608542
:10158000BDF81800B0EB0900208528000014208663
:101590002000FEF7AEFE15E09DF80000400711D5D3
:1015A000BDF81C0018EB00006085BDF81800B0EB1A
:1015B00009002085BDF8180019EB000020862000E6
:1015C000FEF797FE00F069BEBDF81C006085BDF80F
:1015D0001800B0EB09002085BDF8180019EB0000D9
:1015E00020862000FEF785FEBDF81C00B0EB080049
:1015F0006085BDF81800B0EB09002085BDF8180023
:1016000019EB000020862000FEF773FEBDF90200F2
:10161000414609B2884224DBBDF81C0018EB0000EB
:101620006085BDF81800B0EB090020852800001483
:1016300020862000FEF75DFEBDF81C0018EB0000C0
:101640006085300000142085BDF8180019EB0000FB
:1016500020862000FEF74DFE039886190298451952
:101660002EE0BDF90400414609B2884212DBBDF804
:101670001C0018EB00006085BDF81800B0EB0900F5
:1016800020852800001420862000FEF732FE0298F4
:10169000451915E09DF80000400711D5BDF81C0064
:1016A00018EB00006085BDF81800B0EB090020853C
:1016B000BDF8180019EB000020862000FEF719FE87
:1016C000504600B2002809D50FFA88F85FEA4800B2
:1016D000C01C10EB0A0A18F1010877E0BDF81C00E5
:1016E000B0EB09006085BDF81800B0EB080020855C
:1016F000BDF8180018EB000020862000FEF7F9FD69
:10170000BDF90200494609B2884225DBBDF81C003C
:1017100019EB00006085BDF81800B0EB08002085CB
:101720003800001420862000FEF7E3FDBDF81C0001
:1017300019EB00006085584600142085BDF818009C
:1017400018EB000020862000FEF7D3FD0398BBEBCA
:10175000000B02983F1A2EE0BDF90400494609B279
:10176000884212DBBDF81C0019EB00006085BDF853
:101770001800B0EB080020853800001420862000F7
:10178000FEF7B7FD02983F1A15E09DF800004007EC
:1017900011D5BDF81C0019EB00006085BDF81800DC
:1017A000B0EB08002085BDF8180018EB000020867B
:1017B0002000FEF79EFDB8EB090000B24000401D7E
:1017C00010EB0A0AB9F1010918F10108404649462F
:1017D00000B209B28842FFF607AFBDF81C00B0EBBB
:1017E00008006085BDF81800B0EB09002085BDF841
:1017F000180019EB000020862000FEF77AFDBDF9E5
:101800000200414609B2884220DBBDF81C0018EBFB
:1018100000006085BDF81800B0EB090020852800A5
:10182000001420862000FEF764FDBDF81C0018EBB4
:1018300000006085300000142085BDF8180019EB09
:10184000000020862000FEF754FD2CE0BDF90400C6
:10185000414609B2884210DBBDF81C0018EB0000BD
:101860006085BDF81800B0EB090020852800001441
:1018700020862000FEF73DFD15E09DF800004007A2
:1018800011D5BDF81C0018EB00006085BDF81800EC
:10189000B0EB09002085BDF8180019EB0000208688
:1018A0002000FEF726FD00F0F8BCBDF81C006085A6
:1018B000BDF81800B0EB09002085BDF8180019EB41
:1018C000000020862000FEF714FD0398361A0298C7
:1018D0002D1A404600B24042BDF90210884224DB76
:1018E000BDF81C00B0EB08006085BDF81800B0EB37
:1018F000090020853000001420862000FEF7F9FC46
:10190000BDF81C00B0EB080060852800001420859D
:10191000BDF8180019EB000020862000FEF7E9FC56
:101920000398361A02982D1A2FE0404600B2404222
:10193000BDF90410884212DBBDF81C00B0EB0800B2
:101940006085280000142085BDF8180019EB000000
:1019500020862000FEF7CDFC02982D1A15E09DF898
:101960000000400711D4BDF81C00B0EB08006085F2
:10197000BDF81800B0EB09002085BDF8180019EB80
:10198000000020862000FEF7B4FCBDF81C0018EB18
:1019900000006085BDF81800B0EB09002085BDF897
:1019A000180019EB000020862000FEF7A2FC50462C
:1019B00000B2002809D50FFA88F85FEA4800C01C79
:1019C00010EB0A0A18F1010879E0484600B24042DB
:1019D000BDF90210884225DBBDF81C00B0EB090000
:1019E0006085BDF81800B0EB08002085584600144B
:1019F00020862000FEF77DFCBDF81C00B0EB09003E
:101A00006085380000142085BDF8180018EB000030
:101A100020862000FEF76DFC039810EB0B0B02985C
:101A2000C7192FE0484600B24042BDF90410884271
:101A300012DBBDF81C00B0EB090060853800001413
:101A40002085BDF8180018EB000020862000FEF766
:101A500050FC0298C71915E09DF80000400711D40A
:101A6000BDF81C00B0EB09006085BDF81800B0EBB4
:101A700008002085BDF8180018EB00002086200023
:101A8000FEF737FCBDF81C0019EB00006085BDF8BF
:101A90001800B0EB08002085BDF8180018EB000016
:101AA00020862000FEF725FCB8EB090000B24000BC
:101AB000401D10EB0A0AB9F1010918F1010840466E
:101AC000494600B209B28842FFF603AF404600B271
:101AD0004042BDF90210884220DBBDF81C00B0EB8B
:101AE00008006085BDF81800B0EB090020853000C3
:101AF000001420862000FEF7FCFBBDF81C00B0EBB4
:101B000008006085280000142085BDF8180019EB36
:101B1000000020862000FEF7ECFB2DE0404600B2DE
:101B20004042BDF90410884210DBBDF81C00B0EB48
:101B300008006085280000142085BDF8180019EB06
:101B4000000020862000FEF7D4FB15E09DF8000081
:101B5000400711D4BDF81C00B0EB08006085BDF84B
:101B60001800B0EB09002085BDF8180019EB000043
:101B700020862000FEF7BDFBBDF81C0018EB00001E
:101B80006085BDF81800B0EB09002085BDF818008D
:101B900019EB000020862000FEF7ABFB7DE3BDF9CA
:101BA000020000280AD0BDF818002085BDF81800F2
:101BB00020860398361A02982D1A09E0BDF81800FD
:101BC0002085BDF8180019EB0000208602982D1A18
:101BD000BDF81C0060852000FEF78BFB404600B27C
:101BE0004042BDF90210884212DBBDF81C00B0EB88
:101BF000080060852800001420853000001420862D
:101C00002000FEF776FB0398361A02982D1A2FE073
:101C1000404600B24042BDF90410884212DBBDF8D4
:101C20001C00B0EB08006085280000142085BDF87A
:101C3000180019EB000020862000FEF75AFB0298DE
:101C40002D1A15E09DF80000400711D4BDF81C00C6
:101C5000B0EB08006085BDF81800B0EB09002085E6
:101C6000BDF8180019EB000020862000FEF741FBAC
:101C7000504600B2002809D50FFA88F85FEA4800FC
:101C8000C01C10EB0A0A18F1010855E0484600B2E2
:101C90004042BDF90210884213DBBDF81C00B0EBD6
:101CA00009006085380000142085584600142086FD
:101CB0002000FEF71EFB039810EB0B0B0298C719D0
:101CC0002FE0484600B24042BDF90410884212DBC2
:101CD000BDF81C00B0EB09006085380000142085B9
:101CE000BDF8180018EB000020862000FEF701FB6D
:101CF0000298C71915E09DF80000400711D4BDF8FF
:101D00001C00B0EB09006085BDF81800B0EB0800BE
:101D10002085BDF8180018EB000020862000FEF793
:101D2000E8FAB8EB090000B24000401D10EB0A0AC7
:101D3000B9F1010918F101084046494600B209B25B
:101D40008842FFF64BAF404600B24042BDF9021058
:101D500088420EDBBDF81C00B0EB0800608528004F
:101D6000001420853000001420862000FEF7C1FA00
:101D70002DE0404600B24042BDF90410884210DB1D
:101D8000BDF81C00B0EB0800608528000014208519
:101D9000BDF8180019EB000020862000FEF7A9FA14
:101DA00015E09DF80000400711D4BDF81C00B0EB11
:101DB00008006085BDF81800B0EB09002085BDF86B
:101DC000180019EB000020862000FEF792FA64E26A
:101DD000BDF81C006085BDF81800B0EB0900208537
:101DE000BDF8180019EB000020862000FEF781FAEC
:101DF000BDF81C00B0EB08006085BDF81800B0EB22
:101E000009002085BDF8180019EB0000208620008D
:101E1000FEF76FFABDF90400414609B2884224DB9F
:101E2000BDF81C0018EB00006085BDF81800B0EB91
:101E3000090020852800001420862000FEF759FAAA
:101E4000BDF81C0018EB00006085300000142085F0
:101E5000BDF8180019EB000020862000FEF749FAB3
:101E600003988619029845192EE0BDF902004146F3
:101E700009B2884212DBBDF81C0018EB0000608537
:101E8000300000142085BDF8180019EB00002086F2
:101E90002000FEF72EFA0398861915E09DF8000041
:101EA000C00711D4BDF81C0018EB00006085BDF818
:101EB0001800B0EB09002085BDF8180019EB0000F0
:101EC00020862000FEF715FA504600B2002809D5FA
:101ED0000FFA88F85FEA4800C01C10EB0A0A18F1F4
:101EE000010878E0BDF81C00B0EB09006085BDF882
:101EF0001800B0EB08002085BDF8180018EB0000B2
:101F000020862000FEF7F5F9BDF90400494609B224
:101F1000884225DBBDF81C0019EB00006085BDF888
:101F20001800B0EB0800208538000014208620003F
:101F3000FEF7DFF9BDF81C0019EB0000608558467C
:101F400000142085BDF8180018EB00002086200042
:101F5000FEF7CFF90398BBEB000B02983F1A2FE076
:101F6000BDF90200494609B2884213DBBDF81C00E6
:101F700019EB00006085584600142085BDF8180054
:101F800018EB000020862000FEF7B3F90398BBEBA6
:101F9000000B15E09DF80000C00711D4BDF81C002F
:101FA00019EB00006085BDF81800B0EB0800208533
:101FB000BDF8180018EB000020862000FEF799F904
:101FC000B8EB090000B24000401D10EB0A0AB9F15D
:101FD000010918F101084046494600B209B2884299
:101FE000FFF606AFBDF81C00B0EB08006085BDF839
:101FF0001800B0EB09002085BDF8180019EB0000AF
:1020000020862000FEF775F9BDF90400414609B2AB
:10201000884220DBBDF81C0018EB00006085BDF88D
:102020001800B0EB0900208528000014208620004D
:10203000FEF75FF9BDF81C0018EB0000608530006A
:1020400000142085BDF8180019EB00002086200040
:10205000FEF74FF92CE0BDF90200414609B2884273
:1020600010DBBDF81C0018EB000060853000001488
:102070002085BDF8180019EB000020862000FEF72F
:1020800038F915E09DF80000400711D4BDF81C0098
:1020900018EB00006085BDF81800B0EB0900208542
:1020A000BDF8180019EB000020862000FEF721F98A
:1020B000F3E0BDF90400414609B2884212DBBDF8E5
:1020C0001C0018EB000060853000001420852800FB
:1020D000001420862000FEF70CF903988619029858
:1020E00045192EE0BDF90200414609B2884212DBD3
:1020F000BDF81C0018EB000060853000001420853E
:10210000BDF8180019EB000020862000FEF7F1F85A
:102110000398861915E09DF80000C00711D4BDF89A
:102120001C0018EB00006085BDF81800B0EB09003A
:102130002085BDF8180019EB000020862000FEF76E
:10214000D8F8504600B2002809D50FFA88F85FEA9F
:102150004800C01C10EB0A0A18F1010854E0BDF950
:102160000400494609B2884213DBBDF81C0019EB94
:102170000000608558460014208538000014208631
:102180002000FEF7B6F80398BBEB000B02983F1A4D
:102190002FE0BDF90200494609B2884213DBBDF8C1
:1021A0001C0019EB00006085584600142085BDF81E
:1021B000180018EB000020862000FEF79AF803981C
:1021C000BBEB000B15E09DF80000C00711D4BDF873
:1021D0001C0019EB00006085BDF81800B0EB08008A
:1021E0002085BDF8180018EB000020862000FEF7BF
:1021F00080F8B8EB090000B24000401D10EB0A0A5D
:10220000B9F1010918F101084046494600B209B286
:102210008842FFF64EAFBDF90400414609B288423C
:102220000EDBBDF81C0018EB0000608530000014C8
:1022300020852800001420862000FEF75AF82CE0A4
:10224000BDF90200414609B2884210DBBDF81C000E
:1022500018EB00006085300000142085BDF81800E0
:1022600019EB000020862000FEF743F815E09DF8EA
:102270000000400711D4BDF81C0018EB0000608579
:10228000BDF81800B0EB09002085BDF8180019EB67
:10229000000020862000FEF72CF809B0BDE8F08F82
:1022A00070B504000D0016002585E663012D1ED1D2
:1022B000300000B2B0F57A7F0ED040F2E9318842AA
:1022C00015D1B4F90800B4F90A10884201DB0020E6
:1022D00000E05A20E0630AE0B4F90800B4F90A10FB
:1022E000884201DB5A2000E00020E063FFE7200085
:1022F00000F0BEFF012D07D1002020840020608463
:102300002089A0846089E08470BD30B4002513E08A
:1023100050F8042BD30744BFA9F101039A18091FF1
:10232000042942F8045BFAD213468C0744BF158097
:102330009B1CC90748BF1D7050F8041B0029E7D13A
:1023400030BC70472DE9F84F84B006000F0090466E
:102350009946DDF838A0DDF83CB0404680B28000F8
:1023600000F072FB0500002D0BD0542000F06CFB38
:102370000400002C01D0256304E0280000F0F4FBE9
:1023800000E00024002C12D0002003900294CDF82D
:1023900004B0CDF800A04B46424692B2390030005E
:1023A00000F00AF8200000F06AF8012001E05FF078
:1023B000FF3005B0BDE8F08F2DE9F84F05000E00A5
:1023C00017009846DDF828900B9CDDF830A0DAF86D
:1023D000300000EB8700001FC008C000009000988C
:1023E00010F0070F07D0502080F31188BFF34F8FF4
:1023F000BFF36F8FFEE75FF0000BBBF1100F0CD245
:1024000016F80B000AEB0B0181F8340016F80B00EC
:10241000002802D01BF1010BEFE700208AF84300EF
:10242000B9F1070F01D306208146CAF82C90CAF8EB
:1024300044900020CAF848001AF1040001F0ABFCF7
:102440001AF1180001F0A7FCCAF810A0D9F1070092
:10245000CAF81800CAF824A00020CAF84C000020CE
:102460008AF8500042462900009801F0D3FCCAF8CF
:102470000000002C01D0C4F800A0BDE8F18F38B5F1
:10248000040001F026FDDFF8BC130868401C08605A
:10249000DFF8B4532868002806D12C6008680128AA
:1024A0000DD100F0EBF90AE0DFF8C4030068002862
:1024B00005D1E06A2968C96A884200D32C60DFF838
:1024C000B4030168491C0160DFF8AC130A680123FA
:1024D000E06A83401A430A60211DDFF8F023E36AB3
:1024E0001420434302EB030001F058FC01F00BFD04
:1024F000DFF87C03006800280DD02868C06AE16A14
:10250000884208D25FF08050DFF85C140860BFF3A7
:102510004F8FBFF36F8F31BD38B505000024002DFC
:1025200015D0DFF840040068002807D0502080F361
:102530001188BFF34F8FBFF36F8FFEE700F047F8AE
:102540000021280000F028FA00F047F80400002CD1
:1025500008D15FF08050DFF810140860BFF34F8F90
:10256000BFF36F8F31BD1CB5DFF80C040190002064
:10257000009000238022DFF804140FF2D120FFF72F
:10258000E1FE0400012C16D1502080F31188BFF326
:102590004F8FBFF36F8F5FF0FF30DFF8E4130860F9
:1025A0000120DFF8CC1208600020DFF8DC1308609F
:1025B00001F055FC0AE014F1010F07D1502080F31F
:1025C0001188BFF34F8FBFF36F8FFEE713BDDFF8A6
:1025D00094030168491C01607047F8B50025002686
:1025E000DFF880432068002807D1502080F311884D
:1025F000BFF34F8FBFF36F8FFEE701F06AFC2068D7
:10260000401E20602068002857D1DFF8380200689B
:10261000002852D0DFF85C130868002827D0C8686B
:10262000C068050015F1180001F0DFFB281D01F05E
:10263000DCFBDFF844120A680123E86A83401A438E
:102640000A60291DDFF88422EB6A1420434302EB61
:10265000030001F0A3FBE86ADFF8EC110968C96A1E
:102660008842D7D30120DFF8B4130860D2E7002DE9
:1026700001D000F062F9DFF80C733C68002C0CD03C
:1026800000F01FF8002803D00120DFF89013086045
:10269000641E002CF4D100203860DFF8800300684D
:1026A00000280AD0012006005FF08050DFF8B81241
:1026B0000860BFF34F8FBFF36F8F01F024FC300031
:1026C000F2BD2DE9F0410027DFF8980200680028EC
:1026D00071D1DFF8B4020468641C0460002C1CD1C2
:1026E000DFF8A81208680068002807D0502080F39F
:1026F0001188BFF34F8FBFF36F8FFEE7D1F80080D3
:10270000DFF88C0202680A60C0F80080DFF88402FB
:102710000168491C016000F010F9DFF86482D8F804
:10272000000084423AD3DFF8641208680068002889
:1027300004D15FF0FF30C8F800002FE00868C068DF
:10274000C068050068680600B44202D2C8F800609C
:1027500024E0281D01F049FBA86A002803D015F1E8
:10276000180001F042FBDFF810110A680123E86A43
:1027700083401A430A60291DDFF85021EB6A1420B8
:10278000434302EB030001F009FBE86A2E490968A4
:10279000C96A8842C7D301200700C4E7DFF82C11BB
:1027A00029480068C26A142042438858022807D387
:1027B0000120070004E0DFF8CC010168491C01603A
:1027C000DFF858020068002801D001200700380017
:1027D000BDE8F081DFF88C010068002804D00120FA
:1027E000DFF8381208602BE00020DFF830120860B4
:1027F00021480068B0FA80F1D1F11F011422334B57
:1028000002FB01F01858002807D1502080F31188EE
:10281000BFF34F8FBFF36F8FFEE702FB01F203EBB5
:102820000200426852684260426810F108039A420E
:1028300002D14268526842604068C068024A106033
:1028400070470000D80D0020C80D002010B504000E
:1028500000F03EF81D4800680228F9D35FF0805070
:10286000DFF80C110860BFF34F8FBFF36F8FEFE7F6
:10287000E40D0020F40D0020E00D002070B50024D0
:10288000072C08D21148142101FB04F1084401F07F
:1028900073FA641CF4E7DFF89051280001F06CFA39
:1028A000DFF88861300001F067FADFF8C80001F056
:1028B00063FA1B4801F060FA2C4801F05DFADFF87A
:1028C000CC000560DFF86801066070BD0C0C0020CC
:1028D00070B5144D2868002821D0FFF778FE104EFF
:1028E0003068002801D1012400E00024FFF775FEC4
:1028F000002CEED101F0EDFAF068C668301D01F051
:1029000074FADFF830010168491E01602868401E32
:10291000286001F0F8FA300000F006F8D9E770BD41
:102920006C0D0020D40D002010B50400206B00F0C9
:102930001BF9200000F018F910BDDFF850201068D6
:102940000068002805D15FF0FF30DFF83420106008
:1029500007E01068C068C06801004868DFF8202000
:1029600010607047000E002004ED00E0800D002094
:1029700004ED00E0580D0020FC0D00207C580008FC
:10298000F80D0020E80D0020DC0D0020CC0D00200B
:10299000D00D0020F00D00202DE9F04105000C00C5
:1029A0001F480768DFF87C80D8F80000001D01F0A0
:1029B0001CFA002808D1D8F800001F490A68012332
:1029C000C06A83409A430A6015F1010F08D1002CB8
:1029D00006D0D8F80000011D184801F0DFF91AE010
:1029E000E8190600D8F800004660BE4207D2D8F8C1
:1029F0000000011D0E48006801F0DCF90BE0D8F87A
:102A00000000011D0E48006801F0D4F90D4801686E
:102A10008E4200D20660BDE8F0810000EC0D00207F
:102A2000DC0D0020C80D0020300D0020440D0020DA
:102A3000D00D0020D80D0020E00D0020800D0020DA
:102A4000CC0D0020F80D00202DE9F84F04005FF0B8
:102A50000008FFF7BCFDDFF84892D9F80000002815
:102A600001D100F0BBF8DFF83CA2DAF80000044224
:102A700069D1002C15D08C480068041914F0070F98
:102A80000FD014F1080014F00704041B14F0070F12
:102A900007D0502080F31188BFF34F8FBFF36F8FA3
:102AA000FEE7002C4FD0DFF804B2DBF80000A042B4
:102AB00049D37F480600006805006868A04205D237
:102AC0002868002802D02E002D68F6E7D9F800000B
:102AD000854238D0744831680268114488462968B4
:102AE0003160006840006968091B884215D205EB17
:102AF0000400070017F00700002807D0502080F3DB
:102B00001188BFF34F8FBFF36F8FFEE76868001B1C
:102B100078606C60380000F092F8DBF800106868AC
:102B2000091ACBF800106348DBF8001002689142E4
:102B300002D2DBF8001001606968DAF80000014396
:102B4000696000202860FFF748FD18F007000028A2
:102B500007D0502080F31188BFF34F8FBFF36F8FE2
:102B6000FEE74046BDE8F28F70B504002600002C59
:102B700033D04D48006840420644350049496868F2
:102B80000A68104207D1502080F31188BFF34F8F9D
:102B9000BFF36F8FFEE72868002807D0502080F32E
:102BA0001188BFF34F8FBFF36F8FFEE768680A6825
:102BB000104212D0286800280FD16A680868824342
:102BC0006A60FFF704FD39490A68686882180A607C
:102BD000280000F034F8FFF700FD70BD70B44FF42A
:102BE00040623548010011F0070F04D0C91DC90823
:102BF000C900521A82180B002D480360002444605B
:102C0000D41829480068241AE408E400244D2C60F4
:102C100000202E68706000202E6830601800261A90
:102C200046602D6805604568224E356045681F4E38
:102C300035605FF000451B4E356070BC704730B4A6
:102C40001B4A1168814201D21268FAE714005168E8
:102C50002144814204D153684168CB18536010006D
:102C60000300416819441568A94210D10C49146841
:102C70000D68AC4208D04468116849680C1944607A
:102C800011680968016004E00968016001E01168E9
:102C90000160824200D0106030BC7047000000002C
:102CA000A80D0020B40D002084580008AC0D0020B1
:102CB000940D0020B00D00200C00002062F30F22C4
:102CC00062F31F42401810F0030308D0C91A1FD343
:102CD000DB0748BF00F8012D28BF20F8022D1300A4
:102CE00030B414461546103928BF20E93C00FAD804
:102CF000490728BF20E90C0048BF40F8042D89008F
:102D000028BF20F8022D48BF00F8012D30BC7047C5
:102D1000C91818BF00F8012DCB0728BF00F8012DF6
:102D20007047010210B504003248334901604FF486
:102D300082714160002181600021C1600021016138
:102D4000002141614FF4007181610821C1610021BE
:102D5000016200214162002181620A21C16201F009
:102D60001DF9002801D001F041FA10BD704738B5B7
:102D700004000D002A00D2B21021204801F057FBB8
:102D800031BD38B504000D002800C0B2002805D0C0
:102D9000012220211A4801F04AFB04E000222021F0
:102DA000174801F044FB31BD7047704738B5040047
:102DB0000D0028008DF8000000221021104801F0BD
:102DC00036FB6423012269460A4801F061FB31BDEC
:102DD00038B504000D0028008DF8000001221021F4
:102DE000074801F024FB642301226946014801F0F1
:102DF0004FFB31BD980C002000300140000801401D
:102E00000010014010B504002A212000FFF7CEFF7A
:102E1000B4F928000012010089B22000FFF7D8FFA2
:102E2000218DC9B289B22000FFF7D2FFB4F9281072
:102E3000B4F92C004118491E091289B22000FFF78D
:102E4000C7FF218DA08D4118491EC9B289B220004B
:102E5000FFF7BEFF2B212000FFF7A8FFB4F92A00DF
:102E60000012010089B22000FFF7B2FF618DC9B2E4
:102E700089B22000FFF7ACFFB4F92A10B4F92E0094
:102E80004118491E091289B22000FFF7A1FF618D88
:102E9000E08D4118491EC9B289B22000FFF798FFA2
:102EA00010BD10B50400002060612000FFF73AFF5C
:102EB0005FF0FF312000FFF75AFF1420FDF74DF9B6
:102EC00000212000FFF753FF1420FDF746F95FF0C3
:102ED000FF312000FFF74BFF2000FFF765FF0121C6
:102EE0002000FFF763FF0520FDF737F928212000B8
:102EF000FFF75CFFCF212000FFF758FF00212000E3
:102F0000FFF766FF83212000FFF762FF30212000DA
:102F1000FFF75EFFED212000FFF748FF642120004E
:102F2000FFF756FF03212000FFF752FF1221200078
:102F3000FFF74EFF81212000FFF74AFFE821200024
:102F4000FFF734FF85212000FFF742FF0121200019
:102F5000FFF73EFF79212000FFF73AFFCB21200049
:102F6000FFF724FF39212000FFF732FF2C2120003A
:102F7000FFF72EFF00212000FFF72AFF3421200059
:102F8000FFF726FF02212000FFF722FFF721200094
:102F9000FFF70CFF20212000FFF71AFFEA21200095
:102FA000FFF704FF00212000FFF712FF002120009F
:102FB000FFF70EFFC0212000FFF7F8FE26212000BA
:102FC000FFF706FFC1212000FFF7F0FE11212000CE
:102FD000FFF7FEFEC5212000FFF7E8FE35212000A7
:102FE000FFF7F6FE3E212000FFF7F2FEC72120008A
:102FF000FFF7DCFEBE212000FFF7EAFE36212000AD
:10300000FFF7D4FE48212000FFF7E2FE3A2120001E
:10301000FFF7CCFE55212000FFF7DAFEB12120009A
:10302000FFF7C4FE00212000FFF7D2FE1B21200085
:10303000FFF7CEFEF2212000FFF7B8FE08212000A6
:10304000FFF7C6FE26212000FFF7B0FE0121200079
:10305000FFF7BEFEE0212000FFF7A8FE1F212000A1
:10306000FFF7B6FE1A212000FFF7B2FE182120005C
:10307000FFF7AEFE0A212000FFF7AAFE0F21200075
:10308000FFF7A6FE06212000FFF7A2FE4521200043
:10309000FFF79EFE87212000FFF79AFE32212000D5
:1030A000FFF796FE0A212000FFF792FE072120007D
:1030B000FFF78EFE02212000FFF78AFE0721200085
:1030C000FFF786FE05212000FFF782FE0021200089
:1030D000FFF77EFEE1212000FFF768FE00212000BF
:1030E000FFF776FE25212000FFF772FE2721200042
:1030F000FFF76EFE05212000FFF76AFE1021200079
:10310000FFF766FE09212000FFF762FE3A2120004A
:10311000FFF75EFE78212000FFF75AFE4D212000C8
:10312000FFF756FE05212000FFF752FE1821200070
:10313000FFF74EFE0D212000FFF74AFE3821200048
:10314000FFF746FE3A212000FFF742FE1F21200034
:10315000FFF73EFE2A212000FFF728FE0021200075
:10316000FFF736FE00212000FFF732FE002120008D
:10317000FFF72EFEEF212000FFF72AFE2B21200073
:10318000FFF714FE00212000FFF722FE002120009F
:10319000FFF71EFE01212000FFF71AFE3F2120004D
:1031A000FFF716FEB7212000FFF700FE07212000E1
:1031B000FFF70EFEB6212000FFF7F8FD0A212000E0
:1031C000FFF706FE82212000FFF702FE27212000E4
:1031D000FFF7FEFD00212000FFF7FAFD112120007E
:1031E000FFF7E4FD6420FCF7B8FF29212000FFF77A
:1031F000DDFD6420FCF7B1FF2000FFF7B7FD2000E4
:10320000FFF7D3FD64212000FFF7BBFDF0202081F4
:103210004FF4A07060810020A0810320A07364207F
:10322000E073322020745FF0FF3010BD10B5040051
:103230002000FFF7B9FD2000FFF7E4FD2C2120005E
:10324000FFF7B4FD10BD10B50400218F89B2090A43
:103250002000FFF7BDFD218FC9B289B22000FFF722
:10326000B7FD10BD10B504002000FFF79EFD10BD96
:1032700010B50400B4F92800002804D0022800F09A
:10328000988030D3A2E0A07BE16BC9B2884200F005
:103290009D8094F83C000028022802D9C01E0FD05F
:1032A0001DE02000FFF780FD10212000FFF77EFDCC
:1032B00001212000FFF78CFD2000FFF776FD0FE0D5
:1032C0002000FFF771FD10212000FFF76FFD0021A6
:1032D0002000FFF77DFD2000FFF767FD00E075E0AF
:1032E000E06BA07372E0B4F90C00E16B09B28842A4
:1032F0006CD0B4F93C00002807D05A2819D0B42863
:103300002BD0B0F5877F3CD04FE02000FFF74CFD7D
:1033100036212000FFF74AFD48212000FFF758FD25
:103320002000FFF742FD4FF4A0706081F020208163
:103330003CE02000FFF738FD36212000FFF736FD86
:10334000E8212000FFF744FD2000FFF72EFDF020CC
:1033500060814FF4A070208128E02000FFF724FD59
:1033600036212000FFF722FD88212000FFF730FDE5
:103370002000FFF71AFD4FF4A0706081F02020813B
:1033800014E02000FFF710FD36212000FFF70EFDAE
:1033900028212000FFF71CFD2000FFF706FDF0208C
:1033A00060814FF4A070208100E00FE0E06BA0810D
:1033B0000CE0E06B652801D36420E063E16BC9B2E7
:1033C0002000FFF7DEFCE06BE073FFE710BD0000BC
:1033D000C11768B14840401AB0FA80F29040D21C40
:1033E000C907C2F5846241EA025202EBD0214005CE
:1033F00070470000B0B581EA030C0CF0004C40F2BD
:10340000FF7515EA11541DBF15EA1357AC42AF42C0
:1034100039E0E41923EA455343F48013C90241F02B
:10342000004141EA505EC7021100A7FB02020028DA
:103430004FF00000EEFB01204FF00001E3FB0721FD
:1034400018BF42F00102401800214941E3FB0E0180
:10345000A4F580640F0302D252004041494154F167
:1034600001046CDD470872F1004250F1000051EB9D
:103470000451A1F580115CBF41EA0C01B0BD4CEADA
:1034800005510020B0BD05EA1357AC4214BFAF424E
:1034900041E050EA410E1CBF52EA430E02E0614691
:1034A0000020B0BD24423C441BD15FEA070EF6D099
:1034B000090302BF01460020AEF1140EB1FA81F7F4
:1034C000AEEB070401FA07FE0C37C7F1200100FA42
:1034D00007F7C8404EEA000E23EA455343F4801331
:1034E000A2E733F00043B3FA83F704BFB2FA82FED7
:1034F00077440B3FE41BB7F1200E2FBF02FA0EF307
:10350000BB40C7F1200E22FA0EFE38BF43EA0E037D
:10351000BA40641C82E750EA410E14BF52EA430EDF
:103520006FF000014FF4001717EB430F8ABF1946E5
:1035300017EB410FB5E74CEA05510020B0BDD4F1BF
:103540000104B4F120070FDAC4F12007520828BFA4
:1035500042F0010210FA07F501FA07F7E1BF2A432A
:10356000E0403843E1400FE0352C98DCC7F12004FF
:1035700052EA400220FA07F218BF42F0010231FA83
:1035800007F0A1400A43002172F1004250F100000F
:1035900051EB0C01B0BD0000F0B540F2FF7581EABF
:1035A000030C0CF0004C15EA11541DBF15EA13571B
:1035B000AC42AF42E5E0BC41C1F31301C3F31303D6
:1035C000801A994143F4801304D2641E400049419B
:1035D00080185941C90241EA5051B1FBF3F603FB8F
:1035E0001611A2FB0675D7EBC020A94102D2761EA8
:1035F00080185941C90241EA5051B1FBF3FE03FB67
:103600001E11A2FB0E75D7EBC020A94103D2AEF16B
:10361000010E80185941890241EA9051760546EA27
:103620008E2EB1FBF3F603FB1611A2FB0675D7EB4A
:103630008020A94102D2761E80185941C90241EA70
:1036400050514EEA060EB1FBF3F603FB1611A2FB36
:103650000675D7EBC020A94102D2761E80185941C9
:10366000C90241EA5051B1FBF3F703FB1711A2FB6A
:103670000735D3EBC020A94167F100070CBF00421A
:1036800047F0010766F3D5274FEA1E31B80814F555
:10369000806412DDBD0775F1004250EB0E5051EB16
:1036A000045111F5801F5CBF41EA0C01F0BD4CF0E4
:1036B0007F6141F0E0410020F0BDBD076D0840EAA8
:1036C0000E5041F48011D4F10104B4F120060ADA5D
:1036D000C4F120060200E04001FA06F3E14018437D
:1036E000B24015430EE0342C13DCC6F1200445EA49
:1036F00040056D0820FA06F2154321FA06F0A140B4
:103700000D43002175F1004250F1000051EB0C0116
:10371000F0BD00205FEA0C01F0BDCFB992185B410B
:10372000B3FA83F704BFB2FA82F6BF190B3FB7F1C1
:1037300020062FBF02FA06F3BB40C7F1200622FA8B
:1037400006F638BF3343BA401CB1E419641E33E7B0
:103750007F4231F00041B1FA81F404BFB0FA80F643
:10376000A4190B3CB4F120062FBF00FA06F1A140CA
:10377000C4F1200620FA06F638BF3143A0403C1BB6
:103780001AE7AC421ABF05EA1357AF4212E050EAFB
:1037900041061CBF52EA4306BFE750EA41073046E4
:1037A00061461CBF41EA0551F0BD52EA430C08BF17
:1037B000C143F0BD00204FF4001616EB410F98BF37
:1037C00016EB430F08BF16EB410F24BFC14305E0C2
:1037D00016EB430F0CBF61464CEA0551F0BD0000EB
:1037E0002DE9F04D04460D469046DFF88003DFF8E2
:1037F000801322462B46FFF7FDFD0F4627F00041C0
:10380000DFF87023DFF8703300F080FF064662D2E5
:10381000DFF8683307F000410B430022394600F01F
:103820008DFF00F0EDF95FEA000A51D0FFF7D0FDFF
:103830000022D34BFFF7DEFD06460F464FF0A040B7
:10384000D04932463B46FFF7D5FD02460B4620469F
:10385000294600F0F3F904460D464FF0C040CA492E
:1038600032463B46FFF7C6FD02460B462046294638
:1038700000F0E4F904460D464FF00050C3493246CB
:103880003B46FFF7B7FD02460B462046294600F0AF
:10389000D5F904460D460020BD4932463B46FFF7A8
:1038A000A9FD02460B462046294600F0C7F904460A
:1038B0000D464FF00050B74932463B46FFF79AFDA0
:1038C00002460B462046294600F0B8F904460D464C
:1038D0000AF00300A7E068004015401C0CD1680006
:1038E0004015401C02D1290340F03C814FF0FF30CD
:1038F0006FF00041BDE8F08D24F0000035F000418C
:1039000008BF002805D1B8F1000F00F02B81A24DAF
:1039100028E13946994B07F00047304600223B43E7
:1039200000F00CFF0F464900064641EAD071400006
:10393000002908BF002817D040F23342A2EB5150B3
:10394000352804DB06F0000607F000470CE02028CD
:1039500003DD2038C740874000E001D1002603E0A6
:103960000128A4BFC640864026F0000037F0004181
:1039700008BF002851D00020814932463B46FFF75E
:1039800039FD82468B464FF0A0407E4952465B4649
:10399000FFF730FD02460B462046294600F04EF95F
:1039A00004460D464FF0C040774952465B46FFF74C
:1039B00021FD02460B462046294600F03FF9044609
:1039C0000D464FF00050714952465B46FFF712FD1D
:1039D00002460B462046294600F030F904460D46C3
:1039E00000206B4952465B46FFF704FD02460B463A
:1039F0002046294600F022F904460D464FF00050BB
:103A0000644952465B46FFF7F5FC02460B462046EA
:103A1000294600F013F904460D463046394600F0B9
:103A2000EFF800F0030025F000410029804405D59F
:103A300000224FF00043101B63EB010100225FF0F6
:103A4000795304D54FF00047921A67EB030399426C
:103A500008F0010A05DABAF1000F7BD000244E4DC0
:103A600078E022462B4620462946FFF7C3FCBAF1F0
:103A7000000F06460F4631D04848494932463B467A
:103A8000FFF7B8FC474A484B00F058FE32463B4629
:103A9000FFF7B0FC454A464B00F050FE32463B462D
:103AA000FFF7A8FC434A444B00F048FE32463B4631
:103AB000FFF7A0FC414A424B00F040FE32463B4635
:103AC000FFF798FC6FF051023E4B00F037FE324694
:103AD0003B46FFF78FFC00222F4B37E032463B4638
:103AE00020462946FFF786FC82468B4636483749F2
:103AF00032463B46FFF77EFC354A364B00F01EFE51
:103B000032463B46FFF776FC334A344B00F016FE54
:103B100032463B46FFF76EFC314A324B00F00EFE58
:103B200032463B46FFF766FC2F4A304B00F006FE5C
:103B300032463B46FFF75EFC2D4A2E4B00F0FEFD61
:103B400052465B46FFF756FC22462B4600F0F6FD38
:103B500004460D465FEA887004D585F00041204692
:103B6000BDE8F08D20462946BDE8F08D83C8C96DBB
:103B7000305FE43F0000A0FFFFFFDF410000E03FB7
:103B80000000303EFB21B941B410114026A6513E41
:103B90005C14D33C9A833B3B0000F03F09260A109B
:103BA00039BA213E3BA861C6F97D92BE63AC309024
:103BB0009F01FA3EF6FB51166CC156BFB102555536
:103BC0005555A53FFFFFDFBFB08F2FC310D8E53D90
:103BD0008F0C73A1E1E55ABE4DADE44FE31DC73E26
:103BE0003EE3B519A0012ABFFAF010111111813F6F
:103BF000425555555555C5BF0122F1E50022EFE567
:103C0000C1F30A5340F2FE329B1A14DDD3F12003B4
:103C10004FEAE17208DDC90241EA505141F000402B
:103C2000D84080185040704703F2E13010B1D243C1
:103C300082F00040704700207047000070B44FF0E1
:103C4000004591EA030F40F181856B40841A71EBC6
:103C5000030603D2001BB141121973414FF4001C3B
:103C60001CEB410F34BF7CEB430442E00C0DA4EB92
:103C70001356352E4FDC45EAC323DB0A45EAC12142
:103C8000C912B6F120050DDD63FA05F6EB4086EAB0
:103C90000305124218BF45F00105C01851F100019B
:103CA0000CD213E062FA06F5F2405540F3415A4057
:103CB000B340F3405A408018594107D349085FEA9E
:103CC00030005FEA350528BF45F0010501F5801198
:103CD000420875F1004250F1000041EB04514E00E2
:103CE00016F5001F70BC38BF70470020090D09058C
:103CF00070471CEB410F10D252EA43060BD0BCEBCD
:103D0000410F05D80C0DAB43661E342EB6DD02E024
:103D1000AB438018594170BC704770BC70470000BD
:103D200040F2FF7C1CEA115240F2FE33D21A18DD39
:103D3000352A20DAB2F1150309DA6FEA4C53D34081
:103D4000094201D5401E59410020994370476FF048
:103D50000002DA40094202D5801851F10001904377
:103D6000704750EA41031CBF4FEA0C5101F18041FA
:103D700038BF00210020704710F1080141605FF05A
:103D8000FF31816010F10801C16010F1080101618B
:103D900000210160704700210161704742684A605C
:103DA00093688B60936859609160086103685B1C3D
:103DB0000360704710B40B6813F1010F01D1026961
:103DC00007E010F1080254682468A34201D3526846
:103DD000F9E754684C604C68A1608A6051600861E2
:103DE0000468641C046010BC7047010008698A689C
:103DF0004B689A604A688B685A6042688A4201D16F
:103E00008A68426000220A610268521E02600068ED
:103E100070470000001F5FF080730360001F4B08B5
:103E20005B000360001F0FF20D0303601438026093
:103E3000203870474948006810F1010F07D0502022
:103E400080F31188BFF34F8FBFF36F8FFEE75020D1
:103E500080F31188BFF34F8FBFF36F8FFEE7E0B59C
:103E60003F4801780191FF21017001788DF8001021
:103E70009DF8001011F050013A4A11703A4907229A
:103E80000A609DF80020120608D50A68521E0A60D2
:103E90009DF8002052008DF80020F2E70A68120217
:103EA0000A600A6812F4E0620A60019901702F4802
:103EB000016851F470010160016851F070410160C6
:103EC00000F058F800202549086000F028FD002087
:103ED0000EBD502080F31188BFF34F8FBFF36F8F5B
:103EE0001E490A68521C0A60096801290AD1204942
:103EF0000968090606D080F31188BFF34F8FBFF31E
:103F00006F8FFEE7704715490868002807D15020D9
:103F100080F31188BFF34F8FBFF36F8FFEE7086800
:103F2000401E08600868002802D1002080F3118834
:103F3000704780B5502080F31188BFF34F8FBFF3D7
:103F40006F8FFEF7BEFB002803D05FF0805008495A
:103F50000860002080F3118801BD000000000020EF
:103F600000E400E0060E0020C00D002020ED00E07F
:103F700004ED00E0064800684FF47A71B0FBF1F000
:103F8000401E04490860072003490860704700BFCD
:103F90000400002014E000E010E000E010B5040090
:103FA000002C01D101203DE00020A06294F85100D6
:103FB000002802D1200000F0DFFC022084F851002C
:103FC0002068006830F04000216808606168A068DF
:103FD0000143E06801432069014360690143A0692E
:103FE00010F400700143E0690143206A0143A06AB4
:103FF000014320680160A169090C11F00401606AA5
:10400000014320684160E06A216808612068C06956
:1040100030F400602168C86100206065012084F8E8
:104020005100002010BD000080B58AB000F0E2FC15
:1040300000F01BF800F04BF805A86349142200F0CB
:10404000EBFC002105A800F036FD604908606846D9
:104050005F49142200F0E0FC0021684600F02BFDCF
:104060005C490860FEF77FFAFEE700B58FB005A84F
:10407000282100F037FD6846142100F033FD0220AE
:1040800005900120099010200A9002200C90002039
:104090000D905FF4E0100E9005A800F027FD0028B9
:1040A00001D000F0A3F80F20009002200190002022
:1040B000029000200390002004900121684600F047
:1040C000F5FE002801D000F091F80FB000BD30B52A
:1040D00085B06846102100F005FD3F48016851F0A9
:1040E00004010160016811F0040104910499016860
:1040F00051F010010160006810F010000490049865
:10410000364D01221021280000F091F9344C002294
:104110003021200000F08BF9102000900120019048
:1041200001200290032003906946280000F060F807
:104130003020009001200190022002900320039083
:104140006946200000F054F805B030BDFEB504000B
:10415000FBF7EEFF234D2868FCF7D2F9060028682C
:10416000FCF7D1F907004FF4806002907FF02C003B
:1041700001907FF009000090300000B2042190FB14
:10418000F1F31BB2380000B2022190FBF1F212B23F
:10419000300000B2022190FBF1F109B22868FCF76F
:1041A00069FA0120FBF7D9FFFBE710B504000120F5
:1041B000FBF7D3FFFBE710B5040020680A498842EB
:1041C00001D100F0D1FF10BDEC570008B80D002060
:1041D00000580008BC0D00201810024000080140E3
:1041E00000100140A40D0020002C01407047000089
:1041F0002DE9F84702000B000025002600210027CA
:104200005FF000085FF0000EBEF1100F80F00D812E
:10421000012010FA0EF00500186828400600AE4292
:1042200040F000815868002831D0012820D00228B1
:1042300025D003283CD011281DD0122823D0DFF828
:1042400008C2604523D0DFF804C260451FD0DFF804
:1042500000C260451BD0DFF8FCC1604517D0DFF815
:10426000F8C1604513D0DFF8F4C160450FD022E0FB
:10427000D86807001FE0D868001D07001BE0D86859
:104280000830070017E0D8680C30070013E0986882
:10429000002802D10420070009E09868012803D112
:1042A00008200700156102E008200700556102E0C0
:1042B00000200700FFE7B6F5807F01D2140000E080
:1042C000141DB6F5807F02D25FEA8E0803E0BEF1CE
:1042D00008085FEA88085FF00F09D4F800C019FAEF
:1042E00008F03CEA000C17FA08F050EA0C0CC4F88D
:1042F00000C05868C00040F195805948D0F800C00F
:104300005CF0010CC0F800C0006810F001000090E3
:104310000098DFF850C1704680085CF820A01EF0BD
:104320000300C0B2800019FA00F93AEA090A4E48BF
:10433000824202D15FF000091FE04C48824202D164
:104340005FF0010919E04A48824202D15FF0020998
:1043500013E04848824202D15FF003090DE046486D
:10436000824202D15FF0040907E04448824202D150
:104370005FF0050901E05FF006091EF00300C0B21E
:10438000800019FA00F9514659EA01017046800887
:104390004CF820105868C00307D53948D0F800C041
:1043A00056EA0C0CC0F800C006E03548D0F800C052
:1043B0003CEA060CC0F800C05868800307D53148B5
:1043C000D0F800C056EA0C0CC0F800C006E02D483A
:1043D000D0F800C03CEA060CC0F800C05868C00223
:1043E00007D52948D0F800C056EA0C0CC0F800C028
:1043F00006E02548D0F800C03CEA060CC0F800C032
:104400005868800207D52148D0F800C056EA0C0C45
:10441000C0F800C006E01D48D0F800C03CEA060C19
:10442000C0F800C01EF1010EEEE6BDE8F1871300F2
:10443000DBB2002B03D00B009BB2036103E00B0047
:104440009BB21B04036170470000111000001210A2
:104450000000211000002210000031100000321076
:10446000181002400800014000080140000C014003
:10447000001001400014014000180140001C0140E0
:104480000004014004040140080401400C04014000
:104490002DE9FC4706000D0017001C005FF0000A24
:1044A0005FF0000896F85000012801D10220C5E015
:1044B000012086F8500000F063FE814696F8510016
:1044C000012802D002208046B0E0002D03D0380041
:1044D00080B2002802D101208046A7E0032086F8A0
:1044E0005100002070653563B786F7860020B06301
:1044F0000020B0870020F087002070640020306426
:10450000B068B0F5004F05D13068006850F48040C5
:104510003168086030680068400605D4306800687B
:1045200050F0400031680860F068B0F5006F29D1A4
:104530007068002802D0F08E012806D128883168E2
:10454000C860AD1CF08E401EF086F08E002843D06F
:1045500030688068800707D528883168C860AD1C3E
:10456000F08E401EF086F0E7002C08D014F1010F09
:10457000EBD000F005FEB0EB0900A042E5D303202C
:10458000804653E07068002802D0F08E012806D1E2
:104590002878316808736D1CF08E401EF086F08E0E
:1045A000002819D030688068800707D528783168DE
:1045B00008736D1CF08E401EF086F0E7002C08D0CA
:1045C00014F1010FEBD000F0DBFDB0EB0900A042CD
:1045D000E5D30320804629E0CDF800902300012296
:1045E0000221300000F02CF8002802D00320804681
:1045F0001CE04A462100300000F073F8002804D087
:10460000012080462020706510E0B068002808D1A5
:10461000002000903068C06800903068806800908A
:104620000098706D002801D001208046012086F896
:104630005100002086F850004046C0B2BDE8F68721
:104640002DE9F04105000E0017001C00DDF8188070
:10465000286880683040B04201D1012000E000208D
:10466000B8423BD014F1010FF2D0002C05D000F07D
:1046700087FDB0EB0800A042EAD32868406830F01C
:10468000E000296848606868B0F5827F0DD1A868AD
:10469000B0F5004F03D0A868B0F5806F05D1286849
:1046A000006830F0400029680860A86AB0F5005F33
:1046B0000CD1286801684DF6FF7001402868016040
:1046C0002868006850F4005029680860012085F8C7
:1046D0005100002085F85000032000E00020BDE8D4
:1046E000F0817CB504000D00160000962B0000221E
:1046F00080212000FFF7A4FF002805D0606D50F056
:1047000020006065032000E0002076BD4FF4001C0F
:104710001CEB410F94BF1CEB430F09E041EA030C73
:1047200050EA4C0C52EA0C0C03D2994208BF90425A
:10473000704714BF8B4282427047000070B44FF044
:10474000004591EA030F7FF581AA6B40841A71EB53
:10475000030604D26E40001BB141121973414FF49D
:10476000001C1CEB410F34BF7CEB430683E00C0DB7
:10477000A4EB1356362E00F37C80012E45EAC323AA
:1047800041DC43EA525312BFD20292025B08240575
:1047900045EAC12141EA5051D2EBC020994125D4CC
:1047A00007D1B0FA80F610FA06F162D00020203668
:1047B00008E0B1FA81F6B140C6F1200220FA02F217
:1047C0001143B0404FEAF474B4EB465434F00106A0
:1047D0004FEA74040AD8D6F50016760D04F00044AA
:1047E000F04061FA06F25040F1404840C00A40EA09
:1047F000415021F0004128BF5FEA500550F1000010
:1048000044EBD12135E0DB0A45EAC121C90AB6F102
:1048100020050EDD42EA0242120CC5F1200603FA21
:1048200006F6EB4042EA06056D42984161F100014F
:104830000DE062FA06F5F240554063FA06FC82EAA2
:104840000C02F3405A406D42904161EB030111F4B8
:10485000801F05D1641E620502D06D0040414941B0
:1048600021F48011430875F1004350F1000041EB41
:10487000045170BC70471CEB410F15D223F000436C
:1048800052EA43060BD04FEA4C0CBCEB410F04D864
:104890000C0D661E342EB7DDEBE7801A994150EA05
:1048A000410608BF0021E4E708BF1CEB430F28BF07
:1048B0006FF00001DDE70000EFF30980BFF36F8FB9
:1048C0001D4B1A6820E9F00F106008B54FF050003A
:1048D00080F31188BFF34F8FBFF36F8FFDF77AFF1F
:1048E0004FF0000080F31188BDE80840196808689F
:1048F000B0E8F00F80F30988BFF36F8F70470E4B5D
:1049000019680868B0E8F00F80F30988BFF36F8F6B
:104910004FF0000080F311884EF00D0E70470748ED
:104920000068006880F3088862B661B6BFF34F8FF5
:10493000BFF36F8F00DF0000C80D002008ED00E01E
:1049400080B52848016851F001010160006810F04D
:104950000100009000982448016851F080510160E6
:10496000006810F080500090009800220F217FF026
:10497000010000F066FC01BD30B585B0040068465A
:10498000102100F0AFF820681849884227D1154857
:10499000016851F480510160016811F48051049163
:1049A0000499016851F004010160006810F00400EE
:1049B00004900498A020009002200190032003900E
:1049C0000B4D69462800FFF713FC402000900020A3
:1049D00001900020029069462800FFF709FC05B00D
:1049E00030BD0000181002401C1002400030014091
:1049F0000008014080B50748016851F010010160CE
:104A0000032000F018FC002000F042FCFFF798FFA4
:104A1000002002BD00200240103A07D330B4B1E8B4
:104A20003810103AA0E83810F9D230BC530724BF30
:104A3000B1E80810A0E8081044BF51F8043B40F862
:104A4000043BD20724BF31F8022B20F8022B44BFCD
:104A50000B7803707047121F17D35B0009D151F810
:104A6000043B20F8023B1B0C121F20F8023BF6D23D
:104A70000BE051F8043B00F8013B1B0A20F8023B15
:104A80001B0C121F00F8013BF3D238BF121D521E3F
:104A900024BF11F8013B00F8013BF8D87047000033
:104AA000010000200A0012B2842A03D00A0012B2C8
:104AB000D21C101870473EB504000D00B4F9080070
:104AC000FFF7EEFF02A9019100902B00226992B23C
:104AD00021686068FDF736FC012801D0002000E065
:104AE00002983EBD002200F01DBC00002DE9F843F5
:104AF000040000252078C0076BD5DFF82C0601687C
:104B000011F00C01042907D0016811F00C010829EB
:104B10000CD10068C00309D5DFF8080600688003DF
:104B200057D56068002854D10120BDE16068B0F518
:104B3000803F06D1DFF8EC05016851F48031016057
:104B400026E0606800280AD1DFF8D805016831F452
:104B500080310160016831F48021016018E06068F3
:104B6000B0F5A02F0AD1DFF8BC05016851F480210F
:104B70000160016851F48031016009E0DFF8A405AB
:104B8000016831F480310160016831F480210160F5
:104B9000606800280ED000F0F3FA0500DFF8840505
:104BA0000068800315D400F0EBFA401B6528F5D3AC
:104BB000032079E100F0E4FA0500DFF868050068F9
:104BC000800306D500F0DCFA401B6528F5D30320EE
:104BD0006AE12078800750D5DFF84C05016811F0B4
:104BE0000C0F07D0016811F00C01082914D10068DE
:104BF000C00311D4DFF82C050168890704D52169A9
:104C0000012901D001204FE1016831F0F80162690A
:104C100051EAC201016030E0206900281AD0012069
:104C2000DFF81415086000F0ABFA0500DFF8F404B3
:104C30000168890706D400F0A3FA401B0328F5D3C6
:104C4000032031E1016831F0F801626951EAC201E3
:104C5000016012E00020DFF8E014086000F090FA34
:104C60000500DFF8C0040068800706D500F088FA68
:104C7000401B0328F5D3032016E1207800072CD52C
:104C8000A069002816D00120DFF8B014086000F0F9
:104C900077FA0500DFF89C040068800706D400F06E
:104CA0006FFA401B0328F5D30320FDE0012000F03C
:104CB00025FA12E00020DFF88414086000F060FAA2
:104CC0000500DFF870040068800706D500F058FA88
:104CD000401B0328F5D30320E6E02078400740F18D
:104CE00088800026DFF858743868C0000AD4386815
:104CF00050F080503860386810F080500090009874
:104D000001200600DFF83C84D8F80000C00513D469
:104D1000D8F8000050F48070C8F8000000F030FAB5
:104D20000500D8F80000C00506D400F029FA401BA1
:104D30006528F6D30320B7E0E068012806D1DFF844
:104D40000804016851F00101016025E0E0680028D5
:104D50000AD1DFF8F40301684908490001600168DD
:104D600031F00401016017E0E06805280AD1DFF89E
:104D7000D803016851F004010160016851F001019C
:104D8000016009E0DFF8C0030168490849000160DB
:104D9000016831F004010160E068002810D000F0E3
:104DA000EFF90500DFF8A0030068800719D400F0D0
:104DB000E7F9401B41F289318842F3D3032073E0C5
:104DC00000F0DEF90500DFF880030068800708D5F1
:104DD00000F0D6F9401B41F289318842F3D3032019
:104DE00062E03000C0B2012803D1386830F0805052
:104DF0003860E069002856D0DFF82C73386810F06E
:104E00000C0008284DD0E069022837D1DFF83C9328
:104E10000020C9F8000000F0B3F90600DFF80483B1
:104E2000D8F80000800106D500F0AAF9801B0328FD
:104E3000F4D3032038E0206AB0F5803F05D139680B
:104E400031F40031A06801433960396831F47411DC
:104E5000206A0143606A014339600120C9F80000FB
:104E600000F08EF90500D8F8000080011BD400F096
:104E700087F9401B0328F6D3032015E00020DFF854
:104E8000CC12086000F07CF90500DFF89802006899
:104E9000800108D500F074F9401B0328F5D30320E6
:104EA00002E0012000E00020BDE8F2832DE9F0419E
:104EB00004000D000026DFF89872386810F0070033
:104EC000A8420BD23868C008C00028433860386850
:104ED00010F00700A84201D00120ADE02078800743
:104EE00019D52078400705D5DFF83C02016851F458
:104EF000E06101602078000705D5DFF82C02016829
:104F000051F460510160DFF820120A6832F0F002BB
:104F1000A06802430A602078C00758D5606801285D
:104F200006D1DFF800020068800311D4012083E07D
:104F30006068022806D1DFF8EC010068800107D420
:104F4000012079E077480068800701D4012073E0F0
:104F5000DFF8D481D8F8001089088900606801431F
:104F6000C8F8001000F00CF90600606801280ED1A6
:104F7000D8F8000010F00C00042828D000F000F948
:104F8000801B41F289318842F2D3032054E06068EB
:104F900002280ED1D8F8000010F00C00082816D016
:104FA00000F0EEF8801B41F289318842F2D30320F1
:104FB00042E0D8F8000010F00C0F08D000F0E0F844
:104FC000801B41F289318842F3D3032034E03868F2
:104FD00010F0070085420BD23868C008C000284393
:104FE0003860386810F00700A84201D0012023E0A3
:104FF0002078400706D54C490A6832F4E062E06840
:1050000002430A602078000707D54748016831F459
:105010006051226951EAC201016000F00FF84D4968
:10502000414A1268C2F30312895CC84040490860D3
:10503000002000F02DF90020BDE8F081F0B585B02A
:1050400001A845491022FFF7E7FC44480088ADF865
:10505000000000200021002200230025324E346889
:1050600014F00C07042F02D0082F02D01BE02F48A9
:105070001AE001A8C4F38347C05D0300E0030CD528
:1050800068463668C6F34046805D0100274800FB4D
:1050900003F0B0FBF1F0020003E0314800FB03F045
:1050A0000200100000E0214805B0F0BD2048006873
:1050B000704780B5FFF7FAFF2A491B4A1268C2F30E
:1050C000C222895CC84002BD0F220260164A1368E2
:1050D00013F003034360136813F0F0038360136855
:1050E00013F4E063C3601268D20812F4E062026154
:1050F000174A126812F007020A60704781B00C4923
:105100000968C9084FF47A72B1FBF2F101FB00F1B2
:10511000009100BF00994A1E00920029F9D101B008
:1051200070470000001002400410024000127A0094
:105130000400002024100240000042428004424249
:105140001C100240007000402010024060004242EB
:10515000002002402458000814580008222D00089E
:1051600000093D007458000803490A6803480078A4
:1051700082180A60704700BFC40D0020080000209C
:1051800001480068704700BFC40D002010B410F043
:1051900007033A4C22684FF6FF010A40384951EAAA
:1051A00003210A43226010BC704734480068C0F3F2
:1051B00002207047012210F01F018A40314903008C
:1051C0005BB25B0941F82320704710B4020052B271
:1051D000002A09D50A012C4B040064B214F00F0414
:1051E000234403F8042C04E00A01284B040064B2B1
:1051F0001A5510BC704770B4030013F00704D4F1C3
:105200000700052801D3042001E0D4F10700251D83
:10521000072D01D2002500E0E51E012616FA00F058
:10522000401E0140A94016FA05F56D1E2A401143A3
:10523000080070BC704710B504002000FFF7A6FFFF
:1052400010BD2DE9F04104000D0016000027FFF706
:10525000ACFF8046320029004046FFF7CCFF01003A
:10526000200040B2FFF7B1FFBDE8F08110B50400A7
:10527000200040B2FFF79EFF10BD00000CED00E0E3
:105280000000FA0500E100E018ED00E000E400E0B5
:105290002DE9F04387B004000025002600222100FC
:1052A0001920FFF7CEFF1920FFF7E0FF194801682A
:1052B00051F400610160006810F4006000900098F3
:1052C00001A902A8FFF700FFFFF7F3FE070012484D
:1052D000B7FBF0F8B8F10108DFF840901048C9F8C2
:1052E000000040F2E730C9F80C00C9F80480002043
:1052F000C9F810000020C9F80800484600F02CF852
:10530000002803D1484600F043F800E0012007B030
:10531000BDE8F0831810024040420F00F00C00205E
:10532000002C014000B500BF13009646944610398A
:1053300028BFA0E80C50FAD85FEA417C28BF0CC017
:1053400048BF40F8042BC90728BF20F8022B48BFEC
:1053500000F8012B00BD000010B50400002C01D1A5
:10536000012014E094F83D00002805D1002084F8C5
:105370003C00200000F028F9022084F83D00211DA7
:10538000206800F0CFF8012084F83D00002010BD17
:1053900001000868C06850F001000A68D060086821
:1053A000006850F001000A6810600020704710B5D6
:1053B00004002068006980071AD52068C06880074B
:1053C00016D57FF00200216808610120207720684F
:1053D000806910F0030F03D0200000F0F6F805E01C
:1053E000200000F0F3F8200000F0F1F80020207712
:1053F0002068006940071AD52068C068400716D5A4
:105400007FF004002168086102202077206880690D
:1054100010F4407F03D0200000F0D7F805E0200012
:1054200000F0D4F8200000F0D2F8002020772068A7
:10543000006900071AD52068C068000716D57FF0FC
:10544000080021680861042020772068C06910F0F6
:10545000030F03D0200000F0B8F805E0200000F0B2
:10546000B5F8200000F0B3F800202077206800692C
:10547000C0061AD52068C068C00616D57FF0100097
:1054800021680861082020772068C06910F4407FF7
:1054900003D0200000F099F805E0200000F096F815
:1054A000200000F094F80020207720680069C007F1
:1054B0000AD52068C068C00706D57FF001002168C2
:1054C00008612000FEF777FE2068006900060AD513
:1054D0002068C068000606D57FF08000216808615A
:1054E000200000F075F82068006940060AD52068A1
:1054F000C068400606D57FF04000216808612000A2
:1055000000F067F82068006980060AD52068C06846
:10551000800606D57FF0200021680861200000F099
:1055200059F810BD10B400220468DFF888309842A2
:1055300012D0DFF8842090420ED0B0F1804F0BD013
:10554000DFF87820904207D0DFF87420904203D033
:10555000DFF87020904203D134F070044A6814439D
:1055600098420FD0DFF8502090420BD0B0F1804F1E
:1055700008D0124A904205D0114A904202D0114AF6
:10558000904203D134F44074CA68144334F0800468
:105590004A69144304608A68C2620A688262984257
:1055A00002D0054A904201D10A6902630122426198
:1055B00010BC7047002C0140003401400004004042
:1055C00000080040000C004070477047704770476B
:1055D00070477047704700000200060001000A0093
:1055E00003000B0004000100060006000100060095
:1055F0000800000001000C00090000000600010086
:1056000009000B00060001000E0006000100050065
:105610000C000600020001001000000001000C0058
:105620001100000006000100110006000300010047
:105630001600060007000100180000000100060027
:1056400016000700010005001C0000000100060014
:105650001A0007000100050067000000400000007C
:105660006504000883040008CB040008A32E00088A
:10567000000000002D320008000000004732000842
:10568000653200080000000000000000000000007B
:10569000000000000000000000000000000000000A
:1056A000000000000000000071320008000000004F
:1056B00000000000000000000F49086850F00100E1
:1056C00008600E4A13680E48034013600B680D48CB
:1056D00003400B60086830F480200860106830F4E4
:1056E000FE0010605FF41F00074908605FF0006073
:1056F0000649086070470000001002400410024094
:105700000000FFF8FFFFF6FE0810024008ED00E081
:1057100030B450F8041B79B1026843680244083081
:10572000DC0744BFA9F10104E31852F8045B43F815
:10573000045B091FF9D1ECE730BC704710B507498D
:1057400079441831064C7C44163404E00A68081D7C
:10575000114488470146A142F8D110BD080000005D
:1057600028000000A7CBFFFFFC0D00000C0000206C
:10577000000000009DFFFFFF0C000000EC00000097
:10578000000000200000000000F00DF8002801D00B
:10579000FFF7D4FFAFF300800020AFF30080FEF7E7
:1057A00043FC00F002F80120704700F001B800004F
:1057B0000746384600F002F8FBE7000080B5AFF37B
:1057C0000080024A11001820ABBEFBE72600020051
:1057D0007047FEE7FEE7FEE7FEE7704780B5024848
:1057E000FFF7E5FD01BD0000F00C00204458000863
:1057F0004D41000800000000000000008000000093
:1058000050580008AB4100080000000000000000F4
:105810008000000002030405060708090A0B0C0DAE
:105820000E0F101000000000000000000102030431
:10583000060708090148804701480047B956000893
:105840005D58000864656661756C745461736B0023
:105850006D795461736B303200000000AFF300804B
:10586000AFF30080FFF790FFAAAAAAAA00A24A04F9
:1058700001000000000000000102030449444C45FF
:105880000000000008000000FFF7FEBFFFF7FEBFAA
:10589000FFF7FEBFFFF7FEBFFFF7FEBFFFF7FEBF3C
:1058A000FFF7FEBFFFF7FEBFFFF7FEBFFFF7FEBF2C
:1058B000FFF7FEBFFFF7FEBFFFF7FEBFFFF7FEBF1C
:1058C000FFF7FEBFFFF7FEBFFFF7FEBFFFF7FEBF0C
:1058D000FFF7FEBFFFF7FEBFFFF7FEBFFFF7FEBFFC
:1058E000FFF7FEBFFFF7FEBFFFF7FEBFFFF7FEBFEC
:1058F000FFF7FEBFFFF7FEBFFFF7FEBFFFF7FEBFDC
:10590000FFF7FEBFFFF7FEBFFFF7FEBFFFF7FEBFCB
:10591000FFF7FEBFFFF7FEBFFFF7FEBFFFF7FEBFBB
:10592000FFF7FEBFFFF7FEBFFFF7FEBFFFF7FEBFAB
:10593000FFF7FEBFFFF7FEBFFFF7FEBFFFF7FEBF9B
:10594000FFF7FEBFFFF7FEBFFFF7FEBFFFF7FEBF8B
:10595000FFF7FEBFFFF7FEBFFFF7FEBFFFF7FEBF7B
:10596000FFF7FEBFFFF7FEBFFFF7FEBFFFF7FEBF6B
:04597000FFF7FEBF80
:040000050800585D3A
:00000001FF
